:0A0000000C9475000C946C010C9434
:10000A0077010C948E010C9400000C9400000C945F
:10001A0000000C9400000C9400000C9400000C9456
:10002A0000000C94B2010C9400000C9400000C9493
:10003A0000000C9400000C9400000C9400000C9436
:10004A0000000C9400000C9400001027E8036400E0
:10005A000A0001000010000110000100000066699A
:10006A006E616C2073636F72653A002535730047C1
:10007A00414D45204F56455200594F555220534342
:10008A004F52452049533A253573007C002A0057C0
:10009A00454C434F4D452100484152444E45535328
:1000AA003A253473000001002D4E414E00494E4658
:1000BA00000080C002000A0066000A00600279009F
:1000CA0002006A02950002006C02970009006E02A3
:1000DA0099000100B502B0000200B902BC0000009C
:1000EA00F894EE27ECBBF1E0FBBFEBBFE5BF8DE078
:1000FA00A2E0BB27ED938A95E9F780E098E0A0E6B5
:10010A00ED930197E9F7EEEBF0E085919591009771
:10011A0061F0A591B59105901590BF01F001059088
:10012A000D920197E1F7FB01F0CFEFE5EDBFE8E0B3
:10013A00EEBFC0E6D2E00C94C501AA93E881E06460
:10014A00E7B98BE18A95F1F7369A349BFECF349A58
:10015A00E4B1F5B10C94DE050E947705E8E6F0E01B
:10016A00FA93EA9380E00E9441042296ADE00E944D
:10017A0087020E944E060E946306BB245524E4E0CF
:10018A005E16A8F40E947705E3E00E947806A0E6CE
:10019A00B2E00E94A505A4EFB1E00E9453070E94B5
:1001AA007705A4EFB1E00E9453075394E8CF0E9469
:1001BA004E06E3E8F0E00E947C06E0E00E94780642
:1001CA00ADE7B2E00E948A06BB24FECFA0E0B5DF0D
:1001DA006F010E949006AAE9B9E989E99FE30E94A2
:1001EA005308DF01CB01E0E0F0EC6FE774E40E9412
:1001FA00A108AAE9B9E989E99EE30E940308E09304
:10020A00AD02F093AE026093AF027093B002A09178
:10021A00AD02B091AE028091AF029091B0020E94FD
:10022A0095060E9492079E2EA92DB0E0EAE0F0E022
:10023A000E945309FF93EF93A92DBB27EAE0F0E050
:10024A000E9458090E949006ADECBCEC8CEC9DE330
:10025A000E945308AF91BF910E941B090E949709FF
:10026A000E9403080E949C060E94A5060895AEDF1C
:10027A000E949C06EA2DA3E0EA02602C442464143E
:10028A0028F15524E4E05E16F0F4A42DB0E0E3E092
:10029A00F0E00E945309E958FD4FE081E51589F025
:1002AA004A92A52D0E946605AAE6B2E00E94A5051B
:1002BA00EDE0EA93A82D0E946605ACE6B2E00E9442
:1002CA00A5055394DFCFE3E04E0ED9CF08950E94DF
:1002DA00AE0639F0E3E0E81521F083940E94770531
:1002EA00C6DF09C00E94AE0631F0882021F08A9448
:1002FA000E947705BCDFE991EFBFF991E991B991C5
:10030A00A9919991899179916991F9901990099096
:10031A001895EA93E1E0BE2EE99118950E94BD0670
:10032A00E0E0F0E060E272E40E945308A1EBB2E080
:10033A000E949207ED93FC93E0E0E093B302E0930E
:10034A00B402E091B102F091B202A091B302B0916D
:10035A00B402AE17BF07ACF30895AA93BA93EA930F
:10036A00FA93EFB7EA93EDE3E2BFA3EBB2E00E94A0
:10037A00C606E991EFBFF991E991B991A99118954A
:10038A00EBB7E06EEBBFEAE0E5BFE0E0E4BFE0EE2A
:10039A00EABFE0E4E7B9E3E8E6B9E0E0E0BFEBB9D9
:1003AA00E8E0EAB9E6E8E0BDE0E0E0BDE3E3E9B9A8
:1003BA00E5E0E3BFEDE3E2BFE0E0ECBFE1E0E9BF87
:1003CA007894A0E10E94B105E0E0E1BBEFEFE2BB67
:1003DA00E0E0E7BBEFEFE8BBE4E00E947806AEE6B8
:1003EA00B2E00E948A06BB2009F45CC00E9477052D
:1003FA007724E5E07E1690F4E72DF0E0A5E0B0E082
:10040A000E94CC06BF01E72DF0E0A4E0B0E00E9414
:10041A00CC06E081DB01EC937394EBCF0E942905B3
:10042A00DF01EFEFFFE10E945309E09377021FDF3C
:10043A00E5E0EA1569F5E0917C02E81509F08CDE41
:10044A000E94BD06E0E0F0E060EC7FE30E94FC075A
:10045A00DF01CB01EAE9F9E969E17FE30E94A1083A
:10046A00A0E0B0E080E89FE30E940308A091A50203
:10047A00B091A6028091A7029091A8020E94030857
:10048A00E093A502F093A6026093A7027093A802D4
:10049A0045DFA394E5E0EA1508F4AE2E0E944E0665
:1004AA000E946306BB2061F591DE0E949C060E94B1
:1004BA00A5060E948B09E1E0EA93A1E9B2E00E9455
:1004CA006004EDE7F2E0FA93EA93E2EAF0E00E94D0
:1004DA007C06E2E00E947806ADE7B2E00E94A5053C
:1004EA005524591448F45A92A3E00E946605AFEFC6
:1004FA000E9485055394F5CFA8ECB0E00E945307FB
:10050A0072CFFFCFAA935D9BFECFE881ECB90C9422
:10051A00DE05BA93AA931A930E94D30619F0A12F63
:10052A00F1DFFACFAAE0EEDF0C94AE05BA93AA93F4
:10053A00AA81E8DFA881B9810E94C6060C94AF059A
:10054A00BA93AA931A930A93AA81BB8112960E941C
:10055A007409309729F1AA81BB8114960E94740903
:10056A008F01309761F00230E0E01E0780F0F80159
:10057A0031978F01AA81BB811496ED93FC93AA81CE
:10058A00BB8112960E94C6063197AC81A083AA81CC
:10059A00BB810E947409FF2312F00E94C60606C09E
:1005AA00AA81BB81EFEFFFEFED93FC9319810881DC
:1005BA0025960895BA93AA9326970E94A70910E050
:1005CA00AC85BD85E0E0F0E0ED93FC93EA89FB8918
:1005DA003196EA8BFB8B3197E4912E2FE03009F4A8
:1005EA0015C1E12FE03039F4253211F411E002C0CF
:1005FA000E94DB060AC1E130A9F4253219F40E94EF
:10060A00DB0602C112E040E000E02D3211F401E005
:10061A00FCC02B3211F44BE2F8C0203211F440E254
:10062A00F4C002C0E23039F450E013E0203311F490
:10063A000068EBC003C0E33009F0E7C0203310F0D4
:10064A002A3308F007C0AAE05A9F502DE22FE05340
:10065A005E0FDBC0E22FE33649F40E94E206E88926
:10066A00F989A481AA930E94E806CEC0E33741F42F
:10067A000E94E2060E94EE060E94ED051E2F0AC0A5
:10068A00E03761F40E94E2060E94EE060E94F90534
:10069A001E2F086002600F7730E034C0E43611F094
:1006AA00E93611F4046002C0E53731F4E4E5F0E01C
:1006BA00EE83FF8315E00CC0E83511F4086003C02F
:1006CA00E83709F0A1C0EEE5F0E0EE83FF8314E01D
:1006DA0002FF14C00E94E2060E94F806AB85AA2314
:1006EA003AF4EA85FB850E940A09EA87FB874DE20C
:1006FA00403011F01F5F01C00B7F04C00E94E20668
:10070A000E94F80600FD11C0151778F407FF08C00B
:10071A0002FF04C00B7F242F115001C020E301C047
:10072A0020E20E94DB065150EFCF312F01FF17C0A4
:10073A003030A1F003FF06C0EE81FF812591EE83E0
:10074A00FF8305C0AE81BF812D91AE83BF830E9416
:10075A00DB06503009F051503150EACF4BC020E34C
:10076A00EE81FF810E947809E887F987EE81FF818F
:10077A003296EE83FF83E885F985AA85BB85AE1795
:10078A00BF0750F02F5FA885B985EA85FB85EA1B6C
:10079A00FB0BEA87FB87EFCF2A3328F003FF02C05F
:1007AA00295F01C0295D04FD1AC0213320F4A88500
:1007BA00B985119709F409C0531710F000FF01C059
:1007CA0013C020E207FF0BC020E3006102FF07C04D
:1007DA000B7F4A930E94E806503009F051500E945C
:1007EA00DB06503009F051503150A885B98512976F
:1007FA0008F0B5CF00FF08C0503031F05150E0E2A8
:10080A00EA930E94E806F8CF10E0E0CEAC85BD85F9
:10081A000E9474090E94AE0964960895FF92F82E08
:10082A0026970E94A9090E940007309719F4EFEF52
:10083A00FFEF1DC0DE0116960E9406098D010E9477
:10084A000007EE83FF83E0E0E887E987DE011A9676
:10085A000E940707E5EAF2E0FA93EA93DE011A96A4
:10086A00A9DE9F01AE81BF81E0E0EC93F9010E940D
:10087A00B0092A96FF900895FF92F82E26971A93A8
:10088A000A93DE0114960E9406098D01E0E0EC83CA
:10089A00ED83EE83EF83DE0118960E940707EBE9EA
:1008AA00F2E0FA93EA93DE01189684DE1981088150
:1008BA002896FF900895BA93AA932497E0E0E883D4
:1008CA00E983EA83EFE3EB831A930A93EB85FC85CA
:1008DA00EF3FAFEFFA0739F40E941007A2EBB0E03E
:1008EA000E94E005ADC0EF3FAFE7FA0739F40E9476
:1008FA001007A3EBB0E00E94E005A2C0AC85AA23D2
:10090A0062F4E985FA856B857C850E945D070E9401
:10091A0015070E941A07EDE2EC93A885A73010F09C
:10092A00E6E0E8871885E12F1150E03039F00E949F
:10093A0021070E9426070E942D07F5CF0E94320741
:10094A000E9403080E94150710E0E0E0F0E060E86A
:10095A007FE30E942D070E9432070E94E60888F072
:10096A000E9421070E9495060E942D071F5F1732D9
:10097A0038F00E941007A7EBB0E00E94E00560C0C3
:10098A00EACF103029F40E941A07E0E3EC932DC055
:10099A00E12F1150E03049F10E9421070E942607F9
:1009AA00A0E0B0E080E09FE30E940308DF01CB01F2
:1009BA000E9437060E942D070E9432070E94A10852
:1009CA000E9490070E2F0E941A07E02FE05DEC9319
:1009DA00E02FF0E00E9421070E9490060E9453082F
:1009EA000E943B070E944007D3CFE885E03021F1FF
:1009FA000E941A07EEE2EC93E885E150E887EF5F80
:100A0A00D9F00E943B070E9495060E941507E985C6
:100A1A00FA856B857C850E9490070E2F0E941A0723
:100A2A00E02FE05DEC93E02FF0E00E943B070E948C
:100A3A0090060E944007E0CFAE81BF81E0E0EC93D0
:100A4A00198108812D960895E091B502F091B602B8
:100A5A006091B7027091B802ADE6BEE486EC91E40B
:100A6A000E942009EE59F8486F4F7F4FE093B50274
:100A7A00F093B6026093B7027093B802FB01FF7756
:100A8A000895AA93E5B3EF70AE2FE881E07FEA2BD1
:100A9A00E5BB8DE08A95F1F7AA9A8DE08A95F1F780
:100AAA00AA988DE08A95F1F784C0AA93A881E9DF14
:100ABA00E881E295E883A881E4DF85E88A95F1F781
:100ACA0078C0AA93E881F0E0E754FD4FE081A9815C
:100ADA00AE0FEBDFE981E093BD02E881E093BE024D
:100AEA0022960895A2E00E944507ACE0DEDFA1E06D
:100AFA000E944507E0E0E093BE02E093BD0208953C
:100B0A00AA93A881AA3031F0E091BF02A091BD0258
:100B1A00AE1760F0E0E0EA93A091BE02AF5FA09347
:100B2A00BE02CFDFA881AA3009F443C0E091BD021A
:100B3A00EF5FE093BD02A89AA881B7DFA89839C0F1
:100B4A00BA93AA931A930E94D30619F0A12FD8DF59
:100B5A00FACF188123960895AA93E4B3E06FE4BB11
:100B6A00A29AA09AA19AAA98A898A998E881E0932B
:100B7A00BF02E058E093BB02E881E054E093BC0274
:100B8A00A4E1B0E00E9453070E944B070E944B0762
:100B9A000E944B07A0E275DF88EC90E00197F1F71D
:100BAA00A8E283DFA4E081DFA5E87FDFA6E07DDF9E
:100BBA0099DF21960895BA93AA93E991F991A99197
:100BCA00B991CD0105900D920020E1F7FC0108953D
:100BDA00BA93AA93A991B991EE27FF276D9166233B
:100BEA0011F03196FBCF0895BA93AA93AA27BB278F
:100BFA00E991F9910590002011F01196FBCFFD01C2
:100C0A0008950E9490097B816A81F981E88177FBC6
:100C1A00770F67FD7160972F9E5781F078F09831B2
:100C2A0090F4AA27BB27882708948795B795A79594
:100C3A009A95D1F7EA23FB23682305C0E89477271E
:100C4A00EE27FF2766276F77769508F4606877F9AD
:100C5A00A991B99189919991EA17FB0768077907D0
:100C6A0097FB08950E9490090E9481090E94060636
:100C7A000E94860919F40E947C0909C0E6F70E94BD
:100C8A007C09A0E0B0E080E89FE30E94FC0724967C
:100C9A000895E091A502F091A6026091A7027091D1
:100CAA00A8020E948B09E1E0EA93A1E9B2E00E945E
:100CBA006004EDE7F2E0FA93EA930895E5E7F0E0DD
:100CCA00FA93EA93E1E9F2E0662777270E948B0913
:100CDA0084E00E9413042896ADE7B2E00E948E02D7
:100CEA00ADE00C948702EA93A1E00C946605FA93AE
:100CFA00EA93E1E9F2E0662777270E948B0984E00C
:100D0A000E94130428960C9477050E94A505A0ED6D
:100D1A00B7E00C9453070E9416090E94C907089568
:100D2A00E0E0F0E060E271E40E9453080895E09385
:100D3A00A902F093AA026093AB027093AC020895E1
:100D4A00E091A902F091AA026091AB027091AC0203
:100D5A0008950A921A92FA926A937A938A939A93C4
:100D6A00AA93BA93EA93FA93EFB7EA93BB2008954A
:100D7A00A091A902B091AA028091AB029091AC0213
:100D8A000895ED91FD913196FE93EE9308950E9498
:100D9A00A009EA1BFB0BE958FD4F0895A981BA8106
:100DAA00ED91A983BA831E2FE03008952A93AD8569
:100DBA00BE85EF85F88909950895E889F9893497F8
:100DCA00E88BF98B0895AD85BE85EF85F88909957D
:100DDA000895A889B98914960E947409EE83FF833D
:100DEA00AE81BF810895A889B98914960E947409B1
:100DFA00EA87FB870895DE011C960E9406090E9475
:100E0A00740908950E9406090E947409FA93EA93E4
:100E1A001A930A930895EE81FF81FA93EA9308954B
:100E2A00E987FA876B877C870895AE81BF8111961F
:100E3A00AE83BF8311970895AA81BB818C819D815E
:100E4A000895EDECFCEC6CEC7DE30E9453080895E8
:100E5A00EA83FB836C837D830895EA81FB816C813D
:100E6A007D81A985BA858B859C850895A985BA85D2
:100E7A008B859C8508950E949A090E94FC07D0CF11
:100E8A000E945A05A3E0B0E00C945307A0E30E9425
:100E9A00460588EC90E00197F1F70895109639F02D
:100EAA0080ED97E00197F1F7A8951197C9F7089592
:100EBA0030976040704009F070580895552342F405
:100ECA00503811F4E0FF04C03196691F791F6BF0A6
:100EDA0050E8572711F45F93CFC05F3F31F0660F98
:100EEA00000C57956795752F08955F9300200AF0B7
:100EFA00CFC0C8C050E8192E1522880F991F952710
:100F0A00550F879550E8072E0522660F771F75271C
:100F1A00550F67950895689401C0E8945F93F2DFCE
:100F2A00703818F07F3F08F4A7C056E1571BAAF49F
:100F3A00519558300EF4593030F0EFEFFFEF6FEF64
:100F4A007FE777F91AC077275523B9F0EE0FFF1F0D
:100F5A00661F771F5A95D1F710C07727583028F0A7
:100F6A00EF2FF62F672F5850F9CF552331F076958A
:100F7A006795F795E7955A95D1F700200AF449D174
:100F8A005F910895689401C0E8943097604070407A
:100F9A00B1F0002426F0772312F400943AD1172EE8
:100FAA007EE1112032F07A95EE0FFF1F661F111CA9
:100FBA00F9CFEF2FF62F612D5F938ADF5F910895A6
:100FCA004F93AF01FD01DA01AB01BC01CA01402D0B
:100FDA00012C142E4F910895EA0FFB1F681F0895E4
:100FEA00E095F0956095EF5FFF4F6F4F08955F931F
:100FFA0081DF903871F150E8152604C05F937ADFDB
:10100A00903839F1703821F1572F591B2BF112F40E
:10101A00D7DFFACF583118F0AA27BB2788275830CC
:10102A0028F0AB2FB82F88275850F9CF552329F02D
:10103A008695B795A7955A95D9F7502D512572F0EF
:10104A00CBDF38F46795F795E795739513F420C0CD
:10105A00B7DF3EDF5F910895D8F7FBCFEA1BFB0BA2
:10106A00680B51F010F40094BBDF662392F3EE0F85
:10107A00FF1F661F7A95CBF7EE27FF27662777278C
:10108A005F910895EFEFFFEF6FE77FEF5F910895AC
:10109A00EFEFFFEF6FE77FE75F9108955F932ADF36
:1010AA00703851F3903841F301240894791F23F4DE
:1010BA001CF300203AF3ECCF0F921F932F933F9328
:1010CA004F93112722279927689FA0018F9F302DC0
:1010DA00410D591F6B9F300D411D591F8E9F27D0FF
:1010EA00BF9F25D06A9F23D0BE9F1DD0AF9F1BD024
:1010FA00AE9F110D291F391F491F591FE32FF42FC6
:10110A00652F522F4F913F912F911F910F90662378
:10111A002AF0550FEE1FFF1F661F02C073954BF290
:10112A00CDDE5F910895100D211D391F02C0200DDB
:10113A00311D491F591F08955F93DCDE703821F471
:10114A0011200AF49FCFA4CF903809F495CF012437
:10115A000894970B1BF4D4F30020F3CF792F1F9335
:10116A002F933F934F931124112722273327442784
:10117A00552790E2AE17BF078607410730F0AE1B2E
:10118A00BF0B860B410B089401C08894551F221F80
:10119A00331F111CAA1FBB1F881F441F9A9551F7A2
:1011AA00F901612D4F913F912F911F91662332F0E2
:1011BA00550FEE1FFF1F661F7A9543F27FDE5F9180
:1011CA00089599239AF0772342F0971748F029F463
:1011DA00AE17BF07860720F031F0989488940895D7
:1011EA009894089408951894889408957723C2F7D8
:1011FA00971798F3A9F7EA17FB07680788F399F393
:10120A00ECCF0024AF0DB01D0895F195E195F040A3
:10121A000895F09560957095E195FF4F6F4F7F4F58
:10122A0008956F2F660F660B762F08958B2F880F00
:10123A00880B982F08957A9F702D6B9F700DF89FD9
:10124A00700DE99F700D6A9F602D710DFB9F600DF7
:10125A00711DE89F600D711D8827FA9FF02D610DA1
:10126A00781FEB9FF00D611D781FEA9FE02DF10DAD
:10127A00681F781F08950024112490E1AA0FBB1F4C
:10128A00001C111C0E1A1F0A18F40E0E1F1E01C094
:10129A00A1609A9599F7FD01D001089512D0EBDF6C
:1012AA000EF4B3DF0895E894B7FF04C0A095B09593
:1012BA0011966894F7FDA9DFDEDFFD010EF4A5DFC4
:1012CA000895E894F7FF02C0A0DF6894B7FF06C04C
:1012DA00A095B095119600F8039400FA0895ED913F
:1012EA00FC91119708950590F491E02D0895E881F5
:1012FA00F9816A817B810895A881B9818A819B815C
:10130A000895E883F9836A837B8308957A936A93BD
:10131A00FA93EA9308959A938A93BA93AA930895AB
:10132A00689401C0E89401D030DE182E862F612D12
:10133A00192E972F712D1B2EBF2FF12D1A2EAE2F7E
:10134A00E12D08955A934A933A932A931A930A934A
:10135A0008955D814C813B812A8119810881089514
:00000001FF
